:100000003DC057C056C055C054C053C0BEC851C0F3
:1000100050C082C84EC04DC04CC03CC84AC049C048
:1000200048C008000000BE922449123EABAAAA2A8A
:10003000BECDCCCC4C3E00000080BEABAAAAAA3EEE
:1000400000000000BF000000803F0000000000082A
:100050004178D3BB4387D1133D190E3CC3BD4282C7
:10006000AD2B3E68EC8276BED98FE1A93E4C80EF85
:10007000FFBE01C4FF7F3F000000000011241FBE2F
:10008000CFE5D2E0DEBFCDBF11E0A0E6B0E0E8E210
:10009000F6E102C005900D92A638B107D9F711E03C
:1000A000A6E8B1E001C01D92A03AB107E1F78DD7F3
:1000B000B9CAA6CFEF92FF920F931F937B018C01D9
:1000C00020E030E040E05FE455D388237CF0C801B5
:1000D000B70120E030E040E05FE45ED1D0D39B0187
:1000E000AC01205030404040504805C0C801B70125
:1000F000C6D39B01AC01B901CA011F910F91FF90BA
:10010000EF900895A0E0B0E0E7E8F0E0C2C8DC01BD
:100110002B01FA019C91923008F439C1EB018881DE
:10012000823008F433C1943069F4843009F02FC16F
:1001300011969C9111978981981709F428C1A0E61E
:10014000B0E025C1843009F421C18230A9F4923095
:1001500009F01DC19A01AD0188E0EA010990AE01E4
:10016000E90109929E018150C1F7E201898111964E
:100170009C918923818308C1923009F407C11296AA
:100180002D903C901397EB018A819B811496AD9042
:10019000BD90CD90DC901797EC80FD800E811F8183
:1001A0009101281B390BB90137FF04C06627772757
:1001B000621B730B603271050CF061C012161306DE
:1001C0006CF537014801062E04C096948794779405
:1001D00067940A94D2F721E030E040E050E004C098
:1001E000220F331F441F551F6A95D2F7215030400C
:1001F000404050402E213F214023512321153105FD
:100200004105510521F021E030E040E050E0790166
:100210008A01E628F728082919293CC0232BD1F1A7
:10022000260E371E35014601062E04C0969487948B
:10023000779467940A94D2F721E030E040E050E0F0
:1002400004C0220F331F441F551F6A95D2F7215057
:100250003040404050402A213B214C215D21211556
:1002600031054105510521F021E030E040E050E04A
:1002700059016A01A628B728C828D9280BC08215B9
:1002800093052CF01C01AA24BB24650103C0EE24B5
:10029000FF24870111969C91D20111968C91981799
:1002A00009F445C0992339F0A80197012A193B099F
:1002B0004C095D0906C0A60195012E193F09400BA6
:1002C000510B57FD08C0118233822282248335836B
:1002D000468357831DC081E0818333822282882731
:1002E0009927DC01821B930BA40BB50B84839583A8
:1002F000A683B7830DC0220F331F441F551F2483CD
:1003000035834683578382819381019793838283C8
:100310002481358146815781DA01C9010197A109FC
:10032000B1098F5F9F4FAF4FBF4328F30BC091833D
:1003300033822282EA0CFB1C0C1D1D1DE482F58217
:100340000683178383E0808324813581468157812A
:1003500057FF1AC0C901AA2797FDA095BA2F81702F
:100360009070A070B0705695479537952795822B61
:10037000932BA42BB52B84839583A683B78382818B
:100380009381019693838283DF0101C0D201CD0165
:10039000CDB7DEB7E2E199C7A0E2B0E0E1EDF1E070
:1003A00084C769837A838B839C832D833E834F83A9
:1003B0005887E9E0EE2EF12CEC0EFD1ECE010196E1
:1003C000B701D2D38E010F5E1F4FCE010596B80143
:1003D000CBD38A8991E089278A8BC701B801AE0106
:1003E000475E5F4F8FDEEBD2A096E6E07AC7A0E2D1
:1003F000B0E0ECEFF1E059C769837A838B839C838B
:100400002D833E834F835887F9E0EF2EF12CEC0EBD
:10041000FD1ECE010196B701A7D38E010F5E1F4FBF
:10042000CE010596B801A0D3C701B801AE01475E61
:100430005F4F68DEC4D2A096E6E053C7A0E2B0E00A
:10044000E3E2F2E026C769837A838B839C832D8362
:100450003E834F835887CE010196BE01675F7F4F71
:1004600083D3CE010596BE016F5E7F4F7DD3998504
:10047000923088F089898230C8F0943019F4823043
:1004800051F404C0843029F4923081F480E690E085
:10049000C6C0923049F420E09A858A89981321E0F9
:1004A0002A87CE010996BBC0823049F420E09A85A4
:1004B0008A89981321E02A8BCE014196B0C02D8401
:1004C0003E844F8458886D887E888F88988CEE246F
:1004D000FF248701AA24BB24650140E050E060E0CE
:1004E00070E0E0E0F0E0C10181709070892BE9F0EC
:1004F000E60CF71C081D191D9A01AB012A0D3B1DC6
:100500004C1D5D1D80E090E0A0E0B0E0E614F70433
:100510000805190520F481E090E0A0E0B0E0BA0100
:10052000A901480F591F6A1F7B1FAA0CBB1CCC1CBA
:10053000DD1C97FE08C081E090E0A0E0B0E0A82AB2
:10054000B92ACA2ADB2A3196E032F10549F0660C55
:10055000771C881C991C5694479437942794C3CFD2
:10056000FA85EA892B893C898B859C85280F391F60
:100570002E5F3F4F17C0CA0181709070892B61F0C8
:1005800016950795F794E79480E090E0A0E0B0E836
:10059000E82AF92A0A2B1B2B7695679557954795DC
:1005A0002F5F3F4F77FDE7CF0CC0440F551F661FED
:1005B000771F17FD4160EE0CFF1C001F111F21501B
:1005C0003040403090E0590790E0690790E47907A7
:1005D00060F32B8F3C8FDB01CA018F779070A07086
:1005E000B07080349105A105B10561F447FD0AC0E2
:1005F000E114F1040105110529F0405C5F4F6F4FD4
:100600007F4F40781A8EFE1711F081E08A8F4D8F50
:100610005E8F6F8F78A383E0898FCE014996CFD10B
:10062000A096E2E152C6A8E1B0E0E8E1F3E039C605
:1006300069837A838B839C832D833E834F83588782
:10064000B9E0EB2EF12CEC0EFD1ECE010196B701A8
:100650008BD28E010F5E1F4FCE010596B80184D25A
:100660002985223008F47EC03989323010F4B8016F
:100670007CC08A859A8989278A87243011F02230A4
:1006800031F4231709F06EC060E670E06EC03430BC
:1006900039F41D861E861F86188A1C861B8604C098
:1006A000323021F484E08987B7015FC02B853C8517
:1006B0008B899C89281B390B3C872B87ED84FE8412
:1006C0000F851889AD88BE88CF88D88CEA14FB04C2
:1006D0000C051D0540F4EE0CFF1C001F111F2150DE
:1006E00030403C872B8720E030E040E050E080E065
:1006F00090E0A0E0B0E460E070E0EA14FB040C05D8
:100700001D0540F0282B392B4A2B5B2BEA18FB08E0
:100710000C091D09B695A79597958795EE0CFF1CBA
:10072000001F111F6F5F7F4F6F31710531F7DA01C5
:10073000C9018F779070A070B07080349105A105C9
:10074000B10561F427FD0AC0E114F10401051105AA
:1007500029F0205C3F4F4F4F5F4F20782D873E8719
:100760004F87588BBE01675F7F4FCB0128D16896BA
:10077000EAE0B3C5A8E1B0E0EFEBF3E096C569832A
:100780007A838B839C832D833E834F83588789E0B4
:10079000E82EF12CEC0EFD1ECE010196B701E4D13E
:1007A0008E010F5E1F4FCE010596B801DDD1898500
:1007B000823038F08989823020F0C701B8014CD2EC
:1007C00001C08FEF6896E6E08CC5A8E0B0E0EAEEE5
:1007D000F3E068C59B01AC0183E08983DA01C901BC
:1007E0008827B7FD83959927AA27BB27B82E2115FF
:1007F00031054105510519F482E0898339C0882308
:10080000A9F0203080E0380780E0480780E85807EA
:1008100029F460E070E080E09FEC2EC0EE24FF241D
:100820008701E21AF30A040B150B02C079018A0151
:100830008EE1C82ED12CDC82CB82ED82FE820F832A
:100840001887C801B7016CD001971816190684F4EF
:10085000082E04C0EE0CFF1C001F111F0A94D2F7D3
:10086000ED82FE820F831887C81AD90ADC82CB82F8
:10087000BA82CE010196A3D02896E9E02FC5ACE05C
:10088000B0E0E4E4F4E015C569837A838B839C834C
:10089000CE010196BE016B5F7F4F66D18D818230A4
:1008A00061F1823050F1843021F48E81882351F13E
:1008B0002EC02F81388537FD20C06E812F31310544
:1008C0001CF06623F9F023C08EE190E0821B930BAD
:1008D00029853A854B855C8504C0569547953795A3
:1008E00027958A95D2F76623B1F0509540953095BB
:1008F00021953F4F4F4F5F4F0EC020E030E040E06A
:1009000050E009C02FEF3FEF4FEF5FE704C020E05A
:1009100030E040E050E8B901CA012C96E2E0E5C4BD
:10092000EF92FF920F931F937B018C0180E0E816FA
:1009300080E0F80681E0080780E0180788F48FEF70
:10094000E816F1040105110531F028F088E090E087
:10095000A0E0B0E017C080E090E0A0E0B0E012C0FE
:1009600080E0E81680E0F80680E0080781E01807DC
:1009700028F088E190E0A0E0B0E004C080E190E0E1
:10098000A0E0B0E020E230E040E050E0281B390B6E
:100990004A0B5B0B04C016950795F794E7948A956C
:1009A000D2F7F701E859FF4F8081281B310941092F
:1009B0005109C9011F910F91FF90EF900895DF92A7
:1009C000EF92FF920F931F93FC01E480F580068164
:1009D0001781D1808081823048F480E090E0A0E1EE
:1009E000B0E0E82AF92A0A2B1B2BA5C0843009F4B1
:1009F0009FC0823021F4EE24FF24870105C0E1145A
:100A0000F1040105110519F4E0E0F0E096C06281FF
:100A100073819FEF623879070CF05BC022E83FEFEB
:100A2000261B370B2A3131052CF020E030E040E066
:100A300050E02AC0B801A701022E04C07695679540
:100A4000579547950A94D2F781E090E0A0E0B0E096
:100A500004C0880F991FAA1FBB1F2A95D2F70197C0
:100A6000A109B1098E219F21A023B1230097A105DF
:100A7000B10521F081E090E0A0E0B0E09A01AB0187
:100A8000282B392B4A2B5B2BDA01C9018F77907009
:100A9000A070B07080349105A105B10539F427FF2D
:100AA00009C0205C3F4F4F4F5F4F04C0215C3F4F58
:100AB0004F4F5F4FE0E0F0E02030A0E03A07A0E0C9
:100AC0004A07A0E45A0710F0E1E0F0E079018A015A
:100AD00027C06038710564F5FB01E158FF4FD8016C
:100AE000C7018F779070A070B07080349105A10518
:100AF000B10539F4E7FE0DC080E490E0A0E0B0E07D
:100B000004C08FE390E0A0E0B0E0E80EF91E0A1FF9
:100B10001B1F17FF05C016950795F794E7943196AC
:100B200087E016950795F794E7948A95D1F705C065
:100B3000EE24FF248701EFEFF0E06E2F6795662724
:100B40006795902F9F77D794DD24D7948E2F869525
:100B5000492F462B582F5D29B701CA011F910F91CC
:100B6000FF90EF90DF900895FC01DB0140815181FF
:100B70002281622F6F7770E0221F2227221F93812C
:100B8000892F880F822B282F30E0991F9927991FD2
:100B900011969C93119721153105A9F54115510521
:100BA0006105710511F482E037C082E89FEF13966A
:100BB0009C938E9312979A01AB0167E0220F331F2B
:100BC000441F551F6A95D1F783E08C930DC0220F07
:100BD000331F441F551F12968D919C9113970197B7
:100BE00013969C938E931297203080E0380780E014
:100BF000480780E4580758F314962D933D934D937E
:100C00005C93179708952F3F310579F441155105ED
:100C10006105710519F484E08C93089564FF03C0A5
:100C200081E08C9312C01C9210C02F573040139655
:100C30003C932E93129783E08C9387E0440F551FCB
:100C4000661F771F8A95D1F7706414964D935D9354
:100C50006D937C93179708951F93DC01FB019C9182
:100C6000923008F447C08081823008F443C0943049
:100C700051F411961C91843099F58181682F70E0B0
:100C8000611B71093FC0843021F0923031F4823011
:100C9000B9F18181882389F12DC011961C9111979A
:100CA0008230F1F081811817D9F412962D913C9180
:100CB0001397828193818217930794F0281739073D
:100CC000BCF014968D919D910D90BC91A02D248126
:100CD000358146815781281739074A075B0718F481
:100CE000112341F00AC082179307A407B50740F407
:100CF000112319F061E070E005C06FEF7FEF02C0D3
:100D000060E070E0CB011F9108959BB3E8E6F1E04D
:100D1000E80FF11D80818E7F9170892B8BBB089528
:100D200098B3909598BB9BB3E8E6F1E0E80FF11D0E
:100D300080818E7F9170892B8BBB089598B390959D
:100D400098BB9BB3E8E6F1E0E80FF11D80818E7F50
:100D50009170892B8BBB0895382F88B38C7F81606D
:100D600088BB2BB3832F6AE04BD2A8E6B1E0FD012C
:100D7000E90FF11D80818E7F2170822B8BBB42EEAB
:100D800054E0CA010197F1F788B38C7F826088BB79
:100D90002BB3832F35D2A80FB11D8C918E7F21707C
:100DA000822B8BBBCA010197F1F708958EEF8ABBA6
:100DB00086E087BB8BB381708BBB88B3897F88BB90
:100DC00008959BB3E82FF0E0DF01AE58BE4F997451
:100DD0008C91982B9BBB88B3E458FE4F897F908100
:100DE000892B88BB0895DE98DB9A9BB3E82FF0E04F
:100DF000DF01AE58BE4F99748C91982B9BBB88B382
:100E0000E458FE4F897F9081892B88BB0895DB9839
:100E1000DE9A9BB3E82FF0E0DF01AE58BE4F997425
:100E20008C91982B9BBB88B3E458FE4F897F9081AF
:100E3000892B88BB08951F93CF93DF93182FDB98DE
:100E4000DE9A2BB36AE0DCD1A92FB0E042E751E093
:100E5000FA01EA0FFB1F29748081282B2BBB88B372
:100E6000ECE7F1E0AE0FBF1F897F9C91892B88BB17
:100E7000A2EEB4E0CD010197F1F7DE98DB9A3BB327
:100E8000812FBED190E0480F591F3974EA012881A3
:100E9000322B3BBB28B3E80FF91F297F8081282B19
:100EA00028BB1197F1F7DF91CF911F9108958FB76C
:100EB00080688FBF80918A018F5F80938A01823022
:100EC00029F481E08093860110928A0130918C018F
:100ED0003130A9F420918D012F5F20938D01822F55
:100EE00090E083709070892B19F488B3832788BBB6
:100EF000203F29F4C09810928D0110928C01089522
:100F0000AF92BF92CF92DF92EF92FF920F931F9317
:100F1000FBD090939601809395019C0140E050E0B6
:100F200060EF78E18CE990E077D120513742404082
:100F30005040CA01B90149DC609397017093980150
:100F40008093990190939A01E0D17B018C0123E772
:100F50003FE745E759E372DA2BEE3FEF43E95AE307
:100F600046DA5B016C01C801B70129E537E44CEBB7
:100F700053E364DAA801970161DAA80197015EDA08
:100F80009B01AC01C601B50132DA9B01AC0160E006
:100F900070E080E89FE347DB23E333E948E853E46C
:100FA000FBD960939B0170939C0180939D0190936A
:100FB0009E0180D8DC01CB011F910F91FF90EF9033
:100FC000DF90CF90BF90AF9008951F93EFDE97D042
:100FD00005D187E398E00FD1C8D087E597E0D0D05E
:100FE000B89AC0988DDF80938701809388018FB76E
:100FF00080688FBF11E080918601882361F180DFD6
:10100000982F8093870120918801281750F48091B0
:1010100089018F5F809389018A3060F09093880105
:1010200016C08217A0F4809189018F5F8093890197
:101030008A3018F4209387010CC090938801109295
:1010400089019852963028F410938C0102C01092B6
:1010500089011092860120918701822F6AE0D0D009
:1010600080939401822FCCD090939F01C4CF809124
:101070008B018F5F80938B01813021F480919401EB
:10108000B2DE0895823029F480919F01C0DE109273
:101090008B0108951F920F920FB60F9211242F9378
:1010A0003F934F935F936F937F938F939F93AF93F0
:1010B000BF93EF93FF93E0918E01F0918F013097F2
:1010C00009F00995FF91EF91BF91AF919F918F9199
:1010D0007F916F915F914F913F912F910F900FBE34
:1010E0000F901F901895D09817B88AE886B9089580
:1010F000369A089590938F0180938E010895D09829
:1011000017B882E886B90895369A349BFECF349A90
:1011100024B135B1C90108951F920F920FB60F92F5
:1011200011242F933F934F935F936F937F938F93EC
:101130009F93AF93BF93EF93FF93E0919001F09152
:101140009101309709F00995FF91EF91BF91AF910F
:101150009F918F917F916F915F914F913F912F91CF
:101160000F900FBE0F901F90189582E080BF85E80A
:1011700083BF89B7826089BF12BE8AEF86BF089598
:10118000909391018093900108951F920F920FB652
:101190000F9211242F933F934F935F936F937F93FD
:1011A0008F939F93AF93BF93EF93FF93E09192013F
:1011B000F0919301309709F00995FF91EF91BF915C
:1011C000AF919F918F917F916F915F914F913F91DF
:1011D0002F910F900FBE0F901F9018951FBC8CE0A1
:1011E0008EBD80E882BD619A1DBC1CBC80E290E08F
:1011F0009BBD8ABD089590939301809392010895B9
:10120000991B79E004C0991F961708F0961B881F58
:101210007A95C9F78095089597FB092E05260ED07B
:1012200057FD04D014D00AD0001C38F450954095D6
:10123000309521953F4F4F4F5F4F0895F6F79095AA
:101240008095709561957F4F8F4F9F4F0895A1E2D4
:101250001A2EAA1BBB1BFD010DC0AA1FBB1FEE1F30
:10126000FF1FA217B307E407F50720F0A21BB30B7B
:10127000E40BF50B661F771F881F991F1A9469F7F7
:1012800060957095809590959B01AC01BD01CF0153
:1012900008952F923F924F925F926F927F928F921A
:1012A0009F92AF92BF92CF92DF92EF92FF920F93F5
:1012B0001F93CF93DF93CDB7DEB7CA1BDB0B0FB6FF
:1012C000F894DEBF0FBECDBF09942A8839884888BC
:1012D0005F846E847D848C849B84AA84B984C88452
:1012E000DF80EE80FD800C811B81AA81B981CE0F49
:1012F000D11D0FB6F894DEBF0FBECDBFED0108952E
:101300000EF012C11FC1689409C16BD1C8F39923B3
:10131000D1F3C6F3DF93CF931F930F93FF92C92F9F
:10132000DD2788232AF02197660F771F881FDAF7B9
:1013300020E030E040E85FEB9FE3883920F0803E1A
:1013400030F021968F7753D8E2E2F0E003C04FD817
:10135000EFE4F0E0FAD08B01BE01EC01FB2E6F57F9
:1013600071097595771F880B990B2FDA28E132E701
:1013700041E35FE313D0AF2D9801AE01FF900F91D1
:101380001F91CF91DF9177D013C104D128F009D1FB
:1013900018F0952309F0C2C0D5C03EC11AD1A8F3F8
:1013A0009923D9F35523C9F3950F50E0551FAA2768
:1013B000EE27FF27BB2700240894679520F4E20F4F
:1013C000F31FB41F0A1E220F331F441FAA1F669566
:1013D000A9F7779530F4F30FB41F0A1E121E08F414
:1013E0006395330F441FAA1F221F769599F787959F
:1013F00020F4B40F0A1E121E631F440FAA1F221FDF
:10140000331F8695A9F7862F712D602D11249F57C4
:1014100050408AF0E1F088234AF0EE0FFF1FBB1F17
:10142000661F771F881F91505040A9F79E3F5105B6
:1014300070F074C0F1C05F3FECF3983EDCF386952A
:1014400077956795B795F795E7959F5FC1F7FE2B61
:10145000880F911D9695879597F908959BD030F048
:10146000A0D020F031F49F3F11F41EF46BC00EF4B5
:10147000E095E7FB53C0E92FACD080F3BA176207C1
:1014800073078407950718F071F49EF5C4C00EF435
:10149000E0950B2EBA2FA02D0B01B90190010C0184
:1014A000CA01A0011124FF27591B99F0593F50F49C
:1014B000503E68F11A16F040A22F232F342F4427F4
:1014C000585FF3CF469537952795A795F0405395EC
:1014D000C9F77EF41F16BA0B620B730B840BBAF0BC
:1014E0009150A1F0FF0FBB1F661F771F881FC2F727
:1014F0000EC0BA0F621F731F841F48F4879577953B
:101500006795B795F7959E3F08F0B3CF9395880FF1
:1015100008F09927EE0F97958795089597F99F679B
:1015200080E870E060E008959F3F31F0915020F432
:10153000879577956795B795880F911D96958795AF
:1015400097F908959FEF80EC0895DF93CF931F9351
:101550000F93FF92EF92DF927B018C01689405C09C
:10156000DA2EEF011BDFFE01E894A591259135915C
:1015700045915591AEF3EF017EDFFE019701A80181
:10158000DA9479F7DF90EF90FF900F911F91CF9150
:10159000DF91089500240A94161617061806090606
:1015A000089500240A9412161306140605060895D9
:1015B000092E0394000C11F4882352F0BB0F40F461
:1015C000BF2B11F460FF04C06F5F7F4F8F4F9F4FA1
:1015D000089557FD9058440F551F59F05F3F71F023
:1015E0004795880F97FB991F61F09F3F79F087958A
:1015F0000895121613061406551FF2CF4695F1DF13
:1016000008C0161617061806991FF1CF86957105A2
:10161000610508940895E894BB2766277727CB01D6
:0816200097F90895F894FFCF3B
:1016280000000000000000000001020203030303A1
:10163800040404040404040405050505050505055A
:10164800050505050505050506060606060606063A
:101658000606060606060606060606060606060622
:10166800060606060606060607070707070707070A
:1016780007070707070707070707070707070707F2
:1016880007070707070707070707070707070707E2
:1016980007070707070707070707070707070707D2
:1016A80007070707070707070808080808080808BA
:1016B80008080808080808080808080808080808A2
:1016C8000808080808080808080808080808080892
:1016D8000808080808080808080808080808080882
:1016E8000808080808080808080808080808080872
:1016F8000808080808080808080808080808080862
:101708000808080808080808080808080808080851
:101718000808080808080808080808080808080841
:101728000808080808080808FC60DAF266B6BEE08F
:10173800FEF69602A6263234B406B6360E0A0C0E0B
:061748000A0E0E0A0E0E4F
:00000001FF
